:100000000C9495020C94DC020C94DC020C94DC023F
:100010000C94DC020C94DC020C94DC020C94DC02E8
:100020000C94DC020C94DC020C94F9120C94AE11CA
:100030000C9491140C94DC020C94DC020C94DC0201
:100040000C94DC020C94DC020C94DC020C94DC02B8
:100050000C94DC020C9450140C94DC020C94DC0222
:100060000C94DC020C94DC020C94DC020C94DC0298
:100070000C94DC020C94DC020C94DC020C94DC0288
:100080000C94DC020C94DC020C94DC020C94DC0278
:100090000C94DC020C94DC020C94DC020C94DC0268
:1000A0000C94DC020C94DC020C94DC02F6060107D2
:1000B0002C076907AD07F50738083B0840084308D7
:1000C00048084B084E085108540857085A085D085C
:1000D0006008630868086B086E087308B708FB08B7
:1000E0004309460949094C0951095C095F096A0934
:1000F0006D0978097B098609890994098B0D8B0D97
:10010000C50DC50D1E0E3A0ED00FD00F450E230F94
:10011000340F340F03202A20C0212A20C02172204E
:100120009520C02184219721252825283828382882
:100130002E283828382838282528252833283828F4
:100140003828332805010902A10185020901A1000F
:100150000509190129081500250195087501810275
:100160000501093009311581257F95027508810641
:1001700009381581257F950175088106050C0A3817
:10018000021581257F950175088106C0C00501090A
:1001900080A101850319012AB700150126B7009532
:1001A0000175108100C0050C0901A1018504190128
:1001B0002AA002150126A002950175108100C00534
:1001C000010906A101050719E029E7150025019598
:1001D000087501810295017508810105071900293B
:1001E000FF150026FF009506750881000508190116
:1001F0002905950575019102950175039101C009C5
:10020000023B00020100A0FA090400000103010101
:1002100000092111010001224000070581030800A7
:100220000A09040100010300000009211101000175
:10023000227B000705820320000A12010002000051
:100240000008504B8CEF0100010200011C0362000A
:100250006D003600300068007300720067006200B5
:100260002D00690073006F00000016034B00500062
:10027000520065007000750062006C006900630048
:100280000000040309040001010101010101010151
:100290000202020202020202020303030303030337
:1002A0000304040404040404050505050506060604
:1002B0000606070707070708080808090909090AC1
:1002C0000A0A0B0B0B0C0C0C0D0D0D0E0E0E0F0F66
:1002D0000F101011111112121313141415151616F4
:1002E0001717181819191A1A1B1B1C1D1D1E1E1F63
:1002F0002020212222232424252626272829292AB2
:100300002B2C2D2D2E2F30313232333435363738D9
:10031000393A3B3C3D3E3F404142434445464748D5
:10032000494A4C4D4E4F50515354555658595A5BAB
:100330005D5E5F616264656668696B6C6D6F70724B
:10034000737577787A7B7D7E8082838587888A8CB7
:100350008E8F91939596989A9C9EA0A2A3A5A7A9EB
:10036000ABADAFB1B3B5B7BABCBEC0C2C4C6C9CBE2
:10037000CDCFD1D4D6D8DBDDDFE2E4E7E9EBEEF098
:10038000F3F5F8FAFDFF165C1E001F0020002100A7
:100390002200230024002500260027002D002E0027
:1003A0002A002B0014001A000800150017001C007A
:1003B00018000C00120013002F0030002800294103
:1003C000000004001600070009000A000B000D00E1
:1003D0000E000F00330034003100396235001D007B
:1003E0001B00060019000500110010003600370040
:1003F00038724B000251E000E200E3000000000010
:1004000000002C0000000000E700E600E4004E00C1
:100410000151005C3A003B003C003D003E003F00C3
:100420004000410042004300440045004C000100F0
:10043000C35CC45CC65CC75CC85CC95CCA5CCB5CA2
:1004400001000100010001000100010000000100A5
:10045000010001004E0001005000510052004F0009
:100460000100010001000100010001000100010084
:1004700001004B00010001000100010001004A00E1
:100480000100010001000100000000000000010067
:10049000000000000100010001004D00010000000B
:1004A000000000000000000000000000000000004C
:1004B000000000000000000000000000000000003C
:1004C000000000000000000000000000000000002C
:1004D000000000000000000000000000000000001C
:1004E000000000000000000000000000000000000C
:1004F00000000000000000000000000000000000FC
:1005000000000000000000000000000001000000EA
:1005100000000000000000000000000000000000DB
:100520000000000000000000000011241FBECFEFFB
:10053000DAE0DEBFCDBF04B603FE27C0809186049B
:1005400090918704A0918804B09189048730904BE2
:10055000A740B04BD1F410928604109287041092F9
:1005600088041092890414BE84B7877F84BF0FB6B5
:10057000F894A89580916000886180936000109243
:1005800060000FBEE0E0F8E3099512E0A0E0B1E002
:10059000E2EAF4E502C005900D92AC37B107D9F755
:1005A00024E0ACE7B2E001C01D92A638B207E1F743
:1005B0000E94DE020C944F2A0C940000CF93DF932C
:1005C000CDB7DEB760970FB6F894DEBF0FBECDBFD4
:1005D00084B7877F84BF0FB6F894A8958091600098
:1005E000886180936000109260000FBE90E080E808
:1005F0000FB6F89480936100909361000FBE85B7A9
:10060000806885BF85B7806885BF86E296E1909354
:100610007D0280937C020E94F2110E9498128091C8
:10062000E20084608093E200789480910E04882335
:10063000A1F01091E9001F709091EC00892F81705A
:1006400090FD80E8182B1092E9008091E80083FD6E
:100650000E941F1F1F701093E90082E084BD93E089
:1006600095BD9AEF97BD80936E0008E111E06DE1B2
:10067000E62E61E0F62ED8018D918D018F3F11F0AD
:100680000E946B16E016F106B1F70DE111E05BE296
:10069000E52E51E0F52EF80181918F018F3F11F089
:1006A0000E946B16E016F106B1F7E4E8F2E08EE87E
:1006B00092E0AEE8B2E0119211921D921D928E1757
:1006C0009F07C9F780E090E00E946E29893E9E4F07
:1006D00011F00E941B1982E090E00E94662980932D
:1006E000C6020E940A1990938302809382020E949C
:1006F00082162FEF36E741E0215030404040E1F7CD
:1007000000C000000E94821680918E0280FF08C007
:100710006FEF7FEF80E090E00E94A2290E942C14EE
:1007200083E090E00E946629682F70E080E090E00E
:100730000E94062810921C04E5E3F4E085E494E0AE
:100740002FEF3FEF219331938E179F07D9F7109228
:100750009802E1EBF2E081EC92E02FEF3FEF219382
:1007600031938E179F07D9F780E090E00E946E29A1
:10077000893E9E4F21F00E941B190E940E1646E0F2
:1007800050E06CE170E086E494E00E94562980918C
:1007900046048C7F11F40E940E1684E091E0909341
:1007A000AA038093A90330E4B32E48E0242E312C11
:1007B00080910E04853009F044C012E180910E044E
:1007C000853009F03AC080910E04843019F11092FE
:1007D000AD03E8E1F0E00FB6F894A895E09360006F
:1007E0000FBEB092600083B7817F846083BF83B700
:1007F000816083BF7894889583B78E7F83BF0FB65F
:10080000F894A895809160008861809360001092B0
:1008100060000FBE80910D04882309F4CFCF0E94A1
:100820008216EEE8F2E081919191892B09F0ADC238
:1008300022E0E839F207B9F7C1CF0E943C280E94B4
:1008400000150E948216882359F08FB7F8944091C2
:10085000AE035091AF036091B0037091B1038FBFAD
:10086000A7ECB2E0EEE8F2E000E010E0402F81906B
:1008700091908D919D9188259925009709F4ACC0A0
:10088000F12CCC24C394D12C9C012C213D21232B71
:1008900009F49CC0FF8248878C209D2081E0811450
:1008A000910409F480E089870E9485148160782F83
:1008B0009B878A874F81588569858B850E94AC0903
:1008C000F801EE0FFF1FE953FD4F80819181C8268B
:1008D000D926D182C082892869F08EE0809FF001FC
:1008E000819FF00D1124E45AFE4FEF0DF11D808120
:1008F0008F3F11F4F12C03C0A82EFF24F3940F2D89
:1009000010E080919802D801A80FB11D19979CF1B1
:100910006101C01AD10AB8016F5F7F4F68567D4FE1
:10092000A60189E992E00E94462AB801675F7F4FDD
:1009300068567D4FA60181EA92E00E94462AA601F0
:10094000440F551FB801660F771F675E7F4F6856CB
:100950007D4F81EB92E00E94462AB8016F5E7F4F87
:1009600068567D4FA60189EA92E00E94462A88E0F7
:100970008F19809398028091980290E0AA2DB0E0A0
:100980009D01220F331F2E553E4FAA0FBB1FBD01E5
:100990006D557E4F41E0480F9F15A8F490E0FC0193
:1009A000E856FD4FD9015C915183DB015C91518781
:1009B000A18A880F991FFC01E856FD4F128E118EF7
:1009C00091E0842FE7CF809398021CC0F394CC0C65
:1009D000DD1C2EE0F21258CF0F5F1F4F05301105BE
:1009E00009F044CF8FEF8C878D871E860E94851477
:1009F0008160782F988B8F874C855D856E8588897F
:100A00000E94AC094091C1025091C2026091C302A0
:100A10007091C4022FB7F8948091AE039091AF0308
:100A2000A091B003B091B1032FBF841B950BA60B0F
:100A3000B70B2FB7F8944090AE035090AF0360907F
:100A4000B0037090B1032FBF4092C1025092C20216
:100A50006092C3027092C40260919802E8E9F2E0E9
:100A6000462F50E0CC24CA94DC2CE12CF12CC81A7F
:100A7000D90AEA0AFB0A6517A1F0818C928C8401DD
:100A800020E030E0C016D106E206F30610F4415033
:100A900005C09401280F391F328F218F5F5F329676
:100AA000EACF4093980280914604982F937021F0EA
:100AB000F82EF694F69401C0F12C90911401913027
:100AC000E1F030F09230E1F1933009F444C06EC0AF
:100AD00010921101409218045092190460921A0465
:100AE00070921B0489E2E8E9F2E0ACE1B4E0019025
:100AF0000D928A95E1F781E02BC090910F01F912D8
:100B00000CC0837090E040910E0150E021E084170A
:100B1000950709F420E0822F01C081E08170809365
:100B2000130180914B0490911201981709F444C16C
:100B30008093120140E060E080E00E949D153CC17E
:100B4000F0920F01837080930E010E94331183E0B5
:100B5000809314012BC080914504882341F046E026
:100B600050E06CE170E086E494E00E9474291092F9
:100B70004504409118045091190460911A04709131
:100B80001B042FB7F8948091AE039091AF03A0910E
:100B9000B003B091B1032FBF841B950BA60BB70B0D
:100BA0004097A105B10510F01092140186E0E3E52D
:100BB000F4E0DE01119601900D928A95E1F7109113
:100BC0005504D0905604F0905704009158041092A8
:100BD00055041092560410925704109258041111A3
:100BE00003C0DD2009F451C080915104909152045A
:100BF0000E9476149C0190914D04992309F4A2C39C
:100C00002333310508F441C09F3F19F09F5F909353
:100C10004D04112361F00E945226111614F09FEF2B
:100C200001C091E0899F802D112480935504DD201F
:100C300061F00E9452261D1414F09FEF01C091E054
:100C4000899F802D112480935604309155043323BD
:100C5000E1F0209156042223C1F045EB3403C0019A
:100C60001124992319F09093550403C081E08093D7
:100C7000550435EB2303C0011124992319F09093F7
:100C8000560403C081E080935604F11003C0002392
:100C900009F451C080914F04909150040E94761441
:100CA0009C0190914C04992309F451C325363105D8
:100CB00008F441C09F3F19F09F5F90934C04FF20C0
:100CC00061F00E9430261F1414F09FEF01C091E0E4
:100CD000899F802D112480935704002361F00E9486
:100CE0003026101614F09FEF01C091E0899F802DEF
:100CF000112480935804309157043323E1F020915C
:100D000058042223C1F045EB3403C0011124992378
:100D100019F09093570403C081E08093570435EB9A
:100D20002303C0011124992319F09093580403C0A0
:100D300081E0809358048091550481110BC080910B
:100D40005604811107C080915704811103C080911E
:100D5000580481110E948F251B83DC82FD820E8343
:100D600086E0FE013196A3E5B4E001900D928A95EC
:100D7000E1F70E9400159091C502891709F418CD7A
:100D80000E9400158093C50213CD40E149BD19BDF5
:100D900009B400FEFDCF8091D8008F7D8093D800EC
:100DA0008091E00082608093E0008091E00081FD0E
:100DB000FCCF0E943C2802CD8F2D90E08832910517
:100DC00080F0809111018F5F8093110182E0809308
:100DD0001401809113018111E9CEFF2009F4B7CEEF
:100DE000E5CEFC01EA5AFF4F0C94332A809113019F
:100DF000882329F040E060E080E00E949D1580E0BB
:100E000098C2109111018EE0189F102D11240EE050
:100E1000010F073408F006E460914704709148041C
:100E2000809149040E94FF24D62EC72E982E1017B9
:100E300008F024C2E12FF0E0DF01A25DBD4F8C91EC
:100E400090911201982331F0292D4D2D6C2DCF0159
:100E50000E949F151F5FEBCF109111018EE0189F2C
:100E6000102D11240EE0010F073408F006E4C090A5
:100E70004804D090490490904704692D7C2D8D2D15
:100E80000E94FF24862E772E682E60914A04690DF9
:100E90007C2D8D2D0E94FF24D62EC72E982E101744
:100EA00008F0ECC1812F90E0FC01E25DFD4F308144
:100EB00020911201232359F030FF04C0292D4D2D1C
:100EC0006C2D03C0262D482D672D0E949F151F5F96
:100ED000E6CFD09011018EE0D89ED02C11241EE0D8
:100EE000C12ECD0C36E43C1510F4B6E4CB2E809028
:100EF00048047090490420914A044B2D429F412D93
:100F00001124942EDC1418F50D2D10E0F801E25D8B
:100F1000FD4F9081809112018923B9F0F801EE0F05
:100F2000FF1FED55FE4F808182958F7060914704C1
:100F3000899D600D1124782D872D0E94FF24462F56
:100F4000282F672FC8010E949F15D394DBCF81E023
:100F500095E49C1508F0EDC152CFD09011018EE0C0
:100F6000D89ED02C11247EE0C72ECD0CA6E4AC1563
:100F700010F466E4C62E80904804709049042091D5
:100F80004A043B2D329F312D1124932EDC1438F569
:100F90000D2D10E0F801E25DFD4F9081809112016E
:100FA0008923D9F0F801EE0FFF1FEE55FE4F608147
:100FB000969EB001112455E0759567955A95E1F715
:100FC00080914704680F782D872D0E94FF24462FBB
:100FD000282F672FC8010E949F15D394D7CF81E097
:100FE00045E44C1508F0A5C10ACF109111018EE01F
:100FF000189F102D11240EE0010F073408F006E4AD
:10100000C0904704D09048049090490460914A04ED
:1010100066956695669580911804909119040E94D2
:10102000F5240E945624805887FD8195880F282F2B
:10103000392D239F212D1124822FB6010E94FF24D8
:10104000D62EC72E982E101708F018C1E12FF0E009
:10105000DF01A25DBD4F8C9190911201982331F078
:10106000292D4D2D6C2DCF010E949F151F5FEBCFB9
:101070008FE593E202C083E393E20E945B1D59C1B6
:1010800088E394E202C089E194E20E94861E51C185
:101090008EEF93E21AC082EE93E217C081E393E2EF
:1010A000ECCF88E293E2E9CF8FE193E2E6CF84E0F0
:1010B00093E2E3CF85EF92E208C08CEC94E2E5CFB7
:1010C00081ED93E2E2CF8DEB93E20E940A1E31C1E3
:1010D00087EC92E205C085E992E202C087E592E2E0
:1010E0000E94A91D26C18091130181111EC060912B
:1010F0004A0440E1640F08F46FEF80911804909166
:1011000019040E94F5246AE070E00E940B2A892BE2
:1011100009F075CE0E94462966E470E00E941F2AFD
:10112000609112010E94C8156ACE809111010EE0F3
:10113000809F002D11243EE0932E900E86E48915A9
:1011400010F426E4922E10E0C92CD12C0C151D05AC
:1011500044F460911201C8010E94C8150F5F1F4F2F
:10116000F5CF81E095E4991508F0E3C048CE809171
:10117000130181111EC060914A0420E1620F08F43E
:101180006FEF80911804909119040E94F52465E096
:1011900070E00E940B2A892B09F031CE0E9446296B
:1011A00066E470E00E941F2A609112010E94A1155E
:1011B00026CE809111010EE0809F002D11249EE02B
:1011C000992E900E36E4391510F486E4982E10E02E
:1011D000C92CD12C0C151D0544F460911201C801D5
:1011E0000E94A1150F5F1F4FF5CF81E045E449151F
:1011F00008F09FC004CE109111018EE0189F102DB1
:1012000011240EE0010F073408F006E4C0904804F2
:10121000D09049049090470460914A046695669581
:10122000669580911804909119040E94F5240E94FB
:101230005624805887FD8195880F682F2CE0629F87
:10124000612D1124690D7C2D8D2D0E94FF24D62E39
:10125000C72E982E101790F4E12FF0E0DF01A25D69
:10126000BD4F8C9190911201982331F0292D4D2D75
:101270006C2DCF010E949F151F5FECCF81E00634DB
:1012800008F457C0BCCD87E794E2F7CE86E492E23B
:10129000F4CE8FE392E202C089E392E20E94E61C60
:1012A00048C080911C0421E0382F321B08F430E044
:1012B000832F60E272E23BC060E272E237C080914D
:1012C0001C0421E0482F421B08F440E0842F68EE04
:1012D00071E22DC068EE71E229C080911C0421E00A
:1012E000382F321B08F430E0832F63E870E11FC011
:1012F00063E870E11BC080911C0421E0482F421B71
:1013000008F440E0842F6BE670E111C06BE670E1F9
:101310000DC080911C0421E0382F321B08F430E00E
:10132000832F65E570E103C065E570E180E00E9410
:101330001E1C909111019F5F90931101882309F465
:1013400045CD34CC2D32314008F060CC9ECC2D32CE
:10135000314008F0B1CCEFCC1F93CF93DF93CDB7E2
:10136000DEB767970FB6F894DEBF0FBECDBF4B8BCD
:101370005C8B6D8B7E8B8F8B61111092F80386E0F6
:101380009E01235F3F4FD901E82F1D92EA95E9F7AF
:1013900095E0FE017396D90101900D929A95E1F7BF
:1013A0009C894E895F897B897D879E876F87598B52
:1013B000488BF901DE01179601900D928A95E1F7AD
:1013C000CE0107960E94661A81113EC086E0FE019A
:1013D0003796DE01119601900D928A95E1F7FF8113
:1013E000E8856A857B856115710531F0EF3F31F441
:1013F00081E0FF3F19F403C081E001C080E080FD7F
:1014000023C02091C40330E0C90101968770992759
:101410004091F50350E08417950779F1F983EA8349
:101420007D836C8396E0929FD001939FB00D112431
:10143000AB53BC4FFE01319601900D929A95E1F7A6
:101440008093C4030E94F01916E08091F5039091F7
:10145000C4038917F9F0189FC00111248B539C4FC6
:101460000E94661A8823B1F08091F50390E00196FE
:10147000877099278093F503E8CF0E943C2810924B
:10148000C4031092F503EEEBF3E086E0DF011D925A
:101490008A95E9F767960FB6F894DEBF0FBECDBF09
:1014A000DF91CF911F9108958F929F92AF92BF923B
:1014B000CF92DF92EF92FF920F931F93CF93DF9320
:1014C000CDB7DEB72A970FB6F894DEBF0FBECDBFFB
:1014D000FC010081D18083819481892B39F01FEF39
:1014E000D11206C091E00F3F19F403C091E001C092
:1014F00090E090FD94C57F0185E0DE011696019095
:101500000D928A95E1F7F70122818E819F81222336
:1015100049F00E94EA26182F682F8E819F810E9431
:101520008B2703C00E945F27182F26E4129FF0012B
:1015300011243EE0D39EE00DF11D1124E00FF11DBA
:10154000EE0FFF1FEA57FC4F05911491043F8CE505
:10155000180759F190F4093DECE51E07E9F00A3D42
:10156000FCE51F07A1F1083D2CE51207B1F506E2E5
:1015700021EE41EE68ED7CE514C0063F3CE5130723
:1015800001F1C8F0073F9CE5190739F507E225EEA0
:1015900046EE67EF7CE505C007E225EE45EE69ED16
:1015A0007CE5C7010E940C153FC206E221EE40EE29
:1015B00064EF7CE5F6CF07E225EE44EE65EF7CE5CF
:1015C000F0CF06E221EE42EE66EF7CE5EACF08E2DC
:1015D00021E045EE6AED7CE5E4CFF70182818823C6
:1015E00009F43EC11092A6030230FCE51F0708F47F
:1015F00021C106312CE5120730F0C8018B5F9C45F4
:10160000099708F017C10E940A19909383028093EA
:10161000820200313CE5130709F4C3C008F041C061
:1016200008309CE5190709F49AC0F0F40430FCE591
:101630001F0709F487C068F402303CE5130709F47A
:1016400077C003301C4509F0E5C0809182028260BA
:1016500076C006309CE5190709F46EC008F07BC01F
:101660008091820288606BC00C30FCE51F0709F492
:1016700085C068F40A303CE5130709F474C008F02B
:1016800079C00E943C2880918202806858C00E3048
:101690009CE5190709F476C008F07FC080918202AA
:1016A0008BC00C3FFCE51F0709F44FC018F5033150
:1016B0003CE5130709F47DC078F401319CE5190776
:1016C00009F473C002311C4509F0A4C00E943C28F3
:1016D000809182028F7733C00531FCE51F0709F442
:1016E00072C008F486C00B3F1C4509F093C080917E
:1016F00083023EC001158DE5180709F45FC058F458
:101700000E3FECE51E0709F444C008F43FC0809189
:10171000830282602DC002302DE5120709F475C0E6
:1017200008F45DC003301D4509F074C060E06EC070
:1017300080918202816003C08091820280618093E7
:10174000820268C08091820211C08091830282600F
:10175000809383025FC0809182028062F0CF80918B
:1017600082028064ECCF8091820288608460E7CF3F
:101770008160EECF809182028E7FE1CF80918202E4
:101780008D7FDDCF80918202877FD9CF80918302C8
:1017900018C0809183028D7FDBCF809182028F7E83
:1017A000CECF809182028F7DCACF809182028F7BC3
:1017B000C6CF80918202877F8B7FC1CF80918302C9
:1017C0008D7F8E7FC5CF8091820282FB222720F9F8
:1017D00091E0922790FB82F990FB83F9B0CF809142
:1017E0008302982F909591708E7F892B90FB81F9C1
:1017F000AFCF0E943C288091820287FB222720F9EC
:1018000091E0922790FB87F99ACF61E08EE090E01B
:101810000E948429609182021091830284E090E00A
:101820000E948429612F82E290E00E9484290E9414
:101830003C28FAC08091F90306312CE5120749F5DE
:101840008A7A91E009F490E09093D102882311F014
:1018500065E301C069E286EB93E00E94BA1416C00A
:1018600006311C4509F0FFC08091D102882309F49C
:10187000D4C385E3E6EBF3E02CEB33E092818913EC
:1018800001C0128231962E173F07C1F70E948C19B2
:10189000CBC082720B3C9CE5190709F47BC098F51C
:1018A000063CFCE51F0709F461C0B8F4043C3CE5C4
:1018B000130709F451C008F054C0033CECE51E07BF
:1018C00009F07FC08091460491E089278093460407
:1018D0001092140190934504A7C0083CFCE51F0733
:1018E00009F44EC008F447C0093C3CE5130709F46D
:1018F0004CC00A3C9CE5190709F063C049E551E179
:1019000065E671E155C0003DECE51E0709F455C0E0
:1019100098F40D3C2CE5120709F446C008F43FC0CA
:101920000E3C8CE5180709F446C00F3C9CE51907EE
:1019300009F047C085E042C0073DECE51E0730F4E2
:10194000023D1C4508F070C082E138C00E352DE51F
:10195000120709F469C035C04BE951E164EA71E14D
:1019600027C044EA51E16BE971E122C049E851E145
:1019700062E971E11DC042E951E169E871E118C015
:1019800041E751E16DE771E113C04DE751E161E7D6
:1019900071E10EC045E651E169E571E109C04DE331
:1019A00050E169E470E104C049E450E16DE370E1A5
:1019B0000E94971539C081E001C08DE00E94071C8C
:1019C00033C00B353DE5130749F158F401159CE58B
:1019D0001907B1F00F3D1C4509F045C00E941B19C5
:1019E00023C00C35FDE51F07D9F00D351D45D9F590
:1019F0008091830282FB882780F991E0892711C0BA
:101A00000E943C283FEF84E39CE0315080409040AE
:101A1000E1F700C000000E942C1406C081E001C064
:101A200080E00E94B9191FC08091F603877009F405
:101A3000F6C2F7018281882309F4F1C282E02A9676
:101A40000FB6F894DEBF0FBECDBFDF91CF911F91CF
:101A50000F91FF90EF90DF90CF90BF90AF909F904D
:101A60008F900C94D319F70182810081D180882353
:101A700059F0802F9D2D0E94EA26182F682F802F65
:101A80009D2D0E948B2705C0802F9D2D0E945F27D2
:101A9000182F26E4129FF00111243EE0D39EE00DA2
:101AA000F11D1124E00FF11DEE0FFF1FEA57FC4F4F
:101AB000859194910E9470178C01982EF701D28025
:101AC000A580A2943FE0A3228091F603877099F04D
:101AD000DD2089F0812F807F803421F080E2800F2B
:101AE000883048F082E00E94D3198091F603877015
:101AF000CC24C3948111C12CB12EB2949FE0B922A1
:101B00008B2D90E08C30910508F04AC2FC01E25820
:101B1000FF4F0C94332A812F807F1F70882311F090
:101B20001295107FDD20B9F0112309F424C280E260
:101B3000800F883010F0911006C08091F903182BA7
:101B40001093F90305C08091F803182B1093F80344
:101B50000E948C1910C2802F0E945C28112309F466
:101B60001FC2005E1095083010F0911006C08091E1
:101B7000F90318231093F90305C08091F803182383
:101B80001093F8030E948C190BC2812F807F1F7065
:101B9000803211F01295107F992021F0F1E09F160C
:101BA00011F130C0DD20B1F0AA2081F001E0A012D7
:101BB0000DC08091830282FDF3C18091FA03182B3E
:101BC000181709F4EDC11093FA03EAC18091FA03E2
:101BD000812B10C0AA2021F021E0A21609F4E0C157
:101BE0000E94861927C0DD2041F035E03A1508F43F
:101BF000D7C1812F0E945228D3C184E08A1508F4EE
:101C0000CFC118C0DD2049F0AA2099F3F7018581E2
:101C100080FFB1C18F708583ECCFAA2059F00933C2
:101C200009F0BBC1FFEF17EE23E0F1501040204058
:101C3000E1F7B1C1812F0E944728B2C1812F86955B
:101C40008695837019F0813059F0AAC1DD2019F012
:101C5000C801937002C080E090E00E94EA14A6C11F
:101C6000DD2019F0C801937002C080E090E00E946E
:101C7000D4149CC1802FDD2019F00E94722602C06E
:101C80000E94B9250E948F2591C1812F837009F090
:101C900069C0D11089C1902F929596959770990F30
:101CA000990F802F8F70882E912CA12CB12C092E8A
:101CB00004C0880C991CAA1CBB1C0A94D2F704FF10
:101CC00012C04FE050E060E070E004C0440F551FC8
:101CD000661F771F9A95D2F7DB01CA018095909510
:101CE000A095B09503C080E090E0DC0116951695B4
:101CF000412F4370423019F1C8F40091FB03109159
:101D0000FC032091FD033091FE03413059F08829F6
:101D10009929AA29BB29BC01CD0160237123822303
:101D200093230AC0802A912AA22AB32ABC01CD019A
:101D3000682979298A299B290E94062835C1882982
:101D40009929AA29BB290091FB031091FC0320913A
:101D5000FD033091FE03BC01CD016027712782276E
:101D60009327EACFDD2019F0812F817001C086957D
:101D7000882309F419C1902F929596959770990F21
:101D8000990F802F8F70882E912CA12CB12C092EA9
:101D900004C0880C991CAA1CBB1C0A94D2F704FF2F
:101DA00012C04FE050E060E070E004C0440F551FE7
:101DB000661F771F9A95D2F7DB01CA01809590952F
:101DC000A095B09503C080E090E0DC0116951695D3
:101DD000412F43704230D9F068F500917E02109196
:101DE0007F022091800230918102413059F0882990
:101DF0009929AA29BB29BC01CD0160237123822323
:101E000093231EC0802A912AA22AB32A13C08829AC
:101E10009929AA29BB2900917E0210917F02209165
:101E2000800230918102BC01CD0160277127822799
:101E3000932706C0BC01CD01682979298A299B29ED
:101E40000E94B627B1C01F70DD2039F0812F0E949B
:101E5000E527802F0E945228A7C0802F0E94472884
:101E6000812F0E94C027A0C0802F32EF931609F463
:101E700040C0391538F090EF991661F0E1EF9E16E9
:101E800099F174C0F3EF9F16D9F124EF921609F47B
:101E90004EC06CC0DD2019F134E03A1508F480C062
:101EA0001F7181E090E0A0E0B0E0AC01BD0104C092
:101EB000440F551F661F771F1A95D2F780917E0237
:101EC00090917F02A0918002B09181028A019B01D2
:101ED000082719272A273B27C901B80125C025E073
:101EE0002A1508F45DC0DCCFDD2029F0812F8F7129
:101EF00030C0DD20D9F3812F8F710E94C02750C0E0
:101F0000DD2079F01F7181E090E0A0E0B0E0BC013D
:101F1000CD0104C0660F771F881F991F1A95D2F74D
:101F200003C060E070E0CB010E94B62739C0DD201D
:101F300099F01F71812F0E94E5278091830282FD15
:101F400007C038E0139FC001112483608093F6031B
:101F5000812F0E94E52724C081E00E94D31981E0EF
:101F60008A15F0F482E00E94D3191AC0DD2039F0FE
:101F7000AA2009F4BBCF802F0E949B2811C0AA2061
:101F800009F4B9CF893349F49FEFE7EEF3E09150BC
:101F9000E040F040E1F700C00000802F0E945C2884
:101FA00088EF8B0D843010F40E940015CC20A9F02E
:101FB0008091F60380FD11C0F70112828595859509
:101FC00085950E94E527C7010E94540A8091F60377
:101FD0008595859585950E94C02785E0F701DE01EE
:101FE000119601900D928A95E1F789819A810E945C
:101FF0005F279A8106E4809FF00111241EE0919FE3
:10200000E00DF11D11248981E80FF11DEE0FFF1F76
:10201000EA57FC4F8591949102C089E22BCC2A9615
:102020000FB6F894DEBF0FBECDBFDF91CF911F91E9
:102030000F91FF90EF90DF90CF90BF90AF909F9067
:102040008F900895809103040895E2EDF2E093E00B
:10205000E43AF90729F08183608342833396F7CF0E
:102060000895FC01EE0FFF1F8E0F9F1FFC01EE5223
:10207000FD4F6183408322830895E6E4F4E02481E8
:1020800030E1231B08F420E0248381E080934504A1
:102090000895E6E4F4E0248130E1230F08F42FEF03
:1020A000248381E0809345040895EF92FF920F937B
:1020B0009701201B31092F3F310519F010F02FEF48
:1020C00030E02095382F320F08F43FEF832F0F9127
:1020D000FF90EF900895EF92FF920F939701201BCE
:1020E00031092F3F310519F010F02FEF30E0322F7A
:1020F0003095482F430F08F44FEF842F620F0F9154
:10210000FF90EF900895EF92FF920F93972F09346D
:1021100038F4B701601B71096F3F710519F010F0B9
:102120006FEF70E0485F5F4F4131510540F0A9010A
:10213000485F5F4F4131510510F06FEF70E06095DF
:10214000482F460F08F44FEF842F37FF02C02D5F52
:102150003F4F359527953595279560914704620F38
:10216000792F0F91FF90EF90089590910E04943085
:1021700031F58093B2037093B4036093B30382E0AC
:102180008093E9008FEF9091E800815095FD06C0A3
:1021900095ED9A95F1F700008111F5CF8091E80057
:1021A00085FF0DC040E050E063E070E082EB93E01B
:1021B0000E94F31E8091E8008E778093E8000895D6
:1021C000BC0184E00C94B510BC0183E00C94B51004
:1021D00022E02093E9002FEF3091E800215035FDF7
:1021E00006C035ED3A95F1F700002111F5CF2091A9
:1021F000E80025FF0BC040E050E066E070E00E9480
:10220000F31E8091E8008E778093E8000895CF93C5
:10221000DF9321E02093E9002FEF3091E800215077
:1022200035FD06C035ED3A95F1F700002111F5CFE7
:102230002091E80025FF14C0EC0140E050E068E088
:1022400070E00E94F31E8091E8008E778093E80092
:1022500088E0FE01A4E0B4E001900D928A95E1F7D8
:10226000DF91CF9108956A9A8EB18B7F9EB1946071
:102270002FB7F894E2EDF2E033E0E43AF30789F0A7
:10228000319148E09EB9000000C037FF8EB9330F8E
:10229000000000C000C000C08EB900C04A9591F790
:1022A000EBCF2FBF8FE594E00197F1F700C000005E
:1022B0000895E6E4F4E0438120E1421B08F440E0A5
:1022C0008181628190E00C94E21EE6E4F4E04381B7
:1022D00020E1420F08F44FEF8181628190E00C947D
:1022E000E21EE6E4F4E0628120E1621B08F460E0B3
:1022F0008181438190E00C94E21EE6E4F4E0628187
:1023000020E1620F08F46FEF8181438190E00C942B
:10231000E21EE6E4F4E0818190E043816281089767
:102320000C94E21EE6E4F4E0818190E04381628156
:1023300008960C94E21E80914604869586958150FD
:1023400009F487E20C94071C8091460486958695D3
:102350008F5F883208F081E00C94071C1F920F9267
:102360000FB60F9211242F933F934F935F936F9368
:102370007F938F939F93AF93BF93CF93DF93EF930D
:10238000FF93C091E900CF708091EC00D82FD170FD
:1023900080FDD0E81092E9008091F000877F809363
:1023A000F00078940E941F1F1092E9008091F000C5
:1023B00088608093F000CD2BCF70C093E900FF912F
:1023C000EF91DF91CF91BF91AF919F918F917F91CD
:1023D0006F915F914F913F912F910F900FBE0F9092
:1023E0001F901895E8EDF0E080818E7F8083109239
:1023F000E2001092DA001092E100A0EEB0E08C91C1
:1024000081608C9380818F77808319BCA7EDB0E0C9
:102410008C918E7F8C9380818F7E80831092B50308
:1024200008952091E4003091E50095E64091EC009C
:10243000842F817040FF23C08091E80080FD1DC083
:1024400080910E04882399F0853099F08091EB00FB
:1024500085FD11C04091E4005091E5002417350737
:1024600029F3915011F09A01E1CF84E0089582E0C0
:10247000089583E0089581E0089580E008954091F3
:10248000E80042FFDDCF08958091100487FF11C05E
:102490008091E80082FD05C080910E048111F8CF83
:1024A00011C08091E8008B770BC080910E048823C7
:1024B00049F08091E80080FFF8CF8091E8008E77A6
:1024C0008093E8000895982F973068F59093E9007D
:1024D000981739F07091EC002091ED005091F000C8
:1024E00003C0242F762F50E021FD02C09F5FECCF68
:1024F0003091EB003E7F3093EB003091ED003D7F5B
:102500003093ED003091EB0031603093EB0070932D
:10251000EC002093ED005093F0002091EE0027FD99
:10252000E5CF80E008958F708093E90081E0089501
:10253000CF92DF92EF92FF920F931F93CF93DF938F
:10254000C8EDD0E088818F7E8883E7EDF0E0808160
:102550008160808384E082BF81E08093B5038881BD
:102560008E7F888302EE10E0F80110821092DA006C
:1025700081EEC82ED12CF601108288818F77888356
:1025800088818068888388818F7D888319BC1092B8
:102590000E0410920F0410920D0410920C0490EE91
:1025A000E92EF12CF70180818B7F80838881816007
:1025B000888342E060E080E00E946312F60180813F
:1025C0008E7F8083F8018081816080838081886034
:1025D0008083F70180818E7F8083888180618883FA
:1025E000DF91CF911F910F91FF90EF90DF90CF90EF
:1025F00008951F920F920FB60F9211242F933F93BD
:102600004F935F936F937F938F939F93AF93BF93FA
:10261000EF93FF938091E10082FF09C08091E20077
:1026200082FF05C08091E1008B7F8093E100809163
:10263000DA0080FF2AC08091D80080FF26C08091F8
:10264000DA008E7F8093DA008091D90080FF18C075
:1026500080E189BD82E189BD09B400FEFDCF81E042
:1026600080930E048091B50381110FC00E94F21176
:102670000E9498128091E20084608093E20005C07D
:1026800019BC10920E041092B5038091E10080FFF6
:1026900017C08091E20080FF13C08091E2008E7F1E
:1026A0008093E2008091E20080618093E20080915B
:1026B000D80080628093D80019BC85E080930E0416
:1026C0008091E10084FF2EC08091E20084FF2AC047
:1026D00080E189BD82E189BD09B400FEFDCF809112
:1026E000D8008F7D8093D8008091E1008F7E809309
:1026F000E1008091E2008F7E8093E2008091E20011
:1027000081608093E20080910F04882311F084E0BF
:1027100007C08091E30087FD02C081E001C083E033
:1027200080930E048091E10083FF27C08091E20036
:1027300083FF23C08091E100877F8093E10082E0E6
:1027400080930E0410920F048091E1008E7F80939D
:10275000E1008091E2008E7F8093E2008091E200B0
:1027600080618093E20042E060E080E00E946312BA
:102770008091F00088608093F000FF91EF91BF910D
:10278000AF919F918F917F916F915F914F913F9109
:102790002F910F900FBE0F901F9018952091160447
:1027A000309117042617370748F06115710539F481
:1027B0002091E8002E772093E80001C0B901FC01C8
:1027C00020E06115710579F180910E048823F1F103
:1027D0008530F1F18091E80083FD3CC08091E800F4
:1027E00082FD2EC08091E80080FFEBCF2091F300A6
:1027F0008091F20090E0922B6115710551F08830C4
:10280000910538F421912093F100615071090196EE
:10281000F3CF21E0089709F020E08091E8008E775F
:102820008093E800CECF2111CFCF0AC080910E0453
:10283000882361F0853061F08091E80083FD0AC053
:102840008091E80082FFF2CF80E0089582E0089551
:1028500083E0089581E0089581E08093E00080E2C4
:102860008093D8001092C9008FE19EE40197F1F7A0
:1028700000C0000087E090EBDC0180938604909319
:102880008704A0938804B09389049CE088E10FB684
:10289000F894A895809360000FBE90936000FFCFDE
:1028A00078941F920F920FB60F9211248F939F93DB
:1028B000AF93BF938091AE039091AF03A091B0030B
:1028C000B091B1030196A11DB11D8093AE03909309
:1028D000AF03A093B003B093B103BF91AF919F91A9
:1028E0008F910F900FBE0F901F9018959C014FB7BE
:1028F000F8948091AE039091AF03A091B003B09192
:10290000B1034FBF821B930B08952FB7F8948091AA
:10291000AE039091AF03A091B003B091B1032FBF6C
:1029200008951F920F920FB60F9211248F939F93C9
:10293000AF93BF938091AD03811113C08091AE031B
:102940009091AF03A091B003B091B1034196A11D46
:10295000B11D8093AE039093AF03A093B003B093E7
:10296000B103BF91AF919F918F910F900FBE0F90C8
:102970001F9018959C01FC0132969FEF80E04191D9
:10298000461789F09F3F19F4411101C0982F8F5FBE
:102990008630A9F79F3F39F0F901E90FF11D97FD46
:1029A000FA956283089508952091AB033091AC03AA
:1029B0002817390771F09093AC038093AB03E09133
:1029C000A903F091AA03309721F00084F185E02D4E
:1029D000099408952091A7033091A8032817390777
:1029E00071F09093A8038093A703E091A903F0915D
:1029F000AA03309721F00680F781E02D099408950D
:102A0000E091A903F091AA03309721F00190F081A1
:102A1000E02D099480E00895EF92FF920F93CF93F9
:102A2000DF93C42FD22FFC0182818823D1F0409301
:102A3000A6030E9485149093A5038093A40380E2CB
:102A40008C0F883008F06DC0C77081E001C0880F1E
:102A5000CA95EAF7DF91CF910F91FF90EF900C9418
:102A600052288091A60348134BC08091A4039091F3
:102A7000A5030E947614883C910508F041C0CD174B
:102A8000C9F080E28C0F883040F4C77081E001C04B
:102A9000880FCA95EAF70E94472880E28D0F883098
:102AA00048F481E09D2F977001C0880F9A95EAF74E
:102AB0000E945228093319F0E12CF12C03C080E563
:102AC000E82EF12C802F0E949B28E114F10451F094
:102AD0008FE99FE00197F1F700C0000091E0E91A4B
:102AE000F108F3CF802F0E945C2880E28D0F8830A0
:102AF000C0F4D77081E001C0880FDA95EAF70AC008
:102B000080E28C0F883068F4C77081E001C0880FC4
:102B1000CA95EAF7DF91CF910F91FF90EF900C9457
:102B20004728DF91CF910F91FF90EF900895882370
:102B300011F0FA0101C0FB0109940C9425100C94CA
:102B400031101F93CF93DF93FC01E25DFD4F208195
:102B50006223D1F0EC010E944629182F0E944629D9
:102B60008F77782F20E8720F08F47FEF612F809124
:102B700049040E94FF24462F282F672FCE01DF91A2
:102B8000CF911F910C949F15DF91CF911F910895C4
:102B9000DF92EF92FF920F931F93CF93DF93EC019D
:102BA000FC01E25DFD4F9081692381F1D0904804E2
:102BB0000091490410914704E12EF12C0E9446290E
:102BC000282FC7018C549F4F68E671E00E941F2A8E
:102BD0008E199F0997FD03969595879595958795ED
:102BE0002370612F289F600D11247D2D802F0E945E
:102BF000FF24462F282F672FCE01DF91CF911F9101
:102C00000F91FF90EF90DF900C949F15DF91CF9183
:102C10001F910F91FF90EF90DF900895E6E4F4E0AC
:102C200085E380838091150190911601A091170191
:102C300081839283A3838FE784838FEF858346E02C
:102C400050E06CE170E0CF010C94742980E00895AD
:102C50009091820292FF0DC0282F2871283019F41C
:102C6000877F846006C0282F2471243011F48B7F65
:102C7000886093FF0DC0282F2871283119F4877EB2
:102C8000846106C0282F2471243111F48B7E886161
:102C90002091830220FF0DC0382F3871383019F48D
:102CA000877F816006C0382F3171313011F48E7FFB
:102CB000886021FF0DC0282F2871283119F4877EE4
:102CC000816106C0282F2171213111F48E7E886127
:102CD00094FD877E0895F894E82FE295EF70F0E078
:102CE00031A1282F2F7081E090E001C0880F2A9534
:102CF000EAF7982F9095932391A392A1892B82A311
:102D0000789408956F927F928F929F92AF92BF9224
:102D1000CF92DF92EF92FF920F931F93CF93DF93A7
:102D2000CDB7DEB72A970FB6F894DEBF0FBECDBF82
:102D3000AE014F5F5F4F7A018AE0DA011D928A95FA
:102D4000E9F708E111E06A018DE1682E81E0782E53
:102D500088248394912CF80180818F3F09F44DC021
:102D6000F894E82FE295EF70F0E021A18F70A401B4
:102D700002C0440F551F8A95E2F7CA01922F982B83
:102D800091A392A18095892382A3789400C0EDE15C
:102D9000F1E020E030E0A12CB12C81918F3FC1F017
:102DA000A82FA295AF70B0E090964C9150E08F7034
:102DB000DA0102C0B595A7958A95E2F7A0FD08C093
:102DC000C401022E02C0880F991F0A94E2F702C0C4
:102DD00080E090E0A82AB92A2F5F3F4F2E303105BE
:102DE000E1F6F80180818F3F11F00E946B16F0EA46
:102DF000FA95F1F7D601AD92BC920F5F1F4FB2E08A
:102E0000CB0ED11C6016710609F0A5CF4AE050E048
:102E1000B70184E892E00E94392A11E0009709F492
:102E200010E0892B89F08AE0F701A4E8B2E0019074
:102E30000D928A95E1F781E0809301040E94851448
:102E4000909300048093FF0380910104882391F103
:102E50008091FF03909100040E947614059750F131
:102E6000809184029091850290938F0280938E02CC
:102E700080918602909187029093910280939002B4
:102E8000809188029091890290939302809392029C
:102E900080918A0290918B02909395028093940284
:102EA00080918C0290918D0290939702809396026C
:102EB00010920104812F2A960FB6F894DEBF0FBE40
:102EC000CDBFDF91CF911F910F91FF90EF90DF90D9
:102ED000CF90BF90AF909F908F907F906F9008950C
:102EE000CF93DF938238910569F1B0F48133910576
:102EF00009F46FC048F48932910509F465C08A323B
:102F0000910509F46BC08AC08533910509F457C057
:102F100089339105B9F082C0833E910571F138F48F
:102F2000803E9105B1F0823E910511F177C0863E59
:102F30009105B9F1873E9105C9F1843E910509F0EB
:102F40006DC024C02091820220FD53C021FD51C0DC
:102F500065C08091820280FD46C08091830280FF1F
:102F600048C08091820284FD50C183EE90E04FC141
:102F70008091820282FF3AC0F4CF8091820282FD6A
:102F800035C08091830280FD34C0EBCF80918302F5
:102F900081FF35C08091820284FD37C187EE90E0C9
:102FA00036C18091820283FF27C0F4CF80918202D4
:102FB00083FD22C08091830281FD21C0EBCF8091EF
:102FC000820285FD1FC021C08091820285FD1DC047
:102FD00019C08091820286FD1BC01DC080918202B3
:102FE00086FD19C015C089E390E011C182EE90E022
:102FF0000EC180EE90E00BC186EE90E008C184EE39
:1030000090E005C189E290E002C185E390E0FFC055
:103010008AE290E0FCC081E390E0F9C0811531E5DF
:10302000930708F069C0811540E59407F0F09C0112
:1030300074E0369527957A95E1F7922F9370482F93
:10304000437021E030E002C0220F331F4A95E2F7BF
:103050003C68392B982F9F709695969540E2949FE7
:10306000C0011124822B932BD2C0883E910568F5B4
:10307000803E910508F0CBC0883A9105B8F4853AB6
:10308000910548F0855AE82FF0E0E55DFE4F80811C
:1030900090E09064BCC08130910509F4B3C008F49D
:1030A000B4C08430910508F4B0C0B1C08F3B910525
:1030B00008F0ABC0885AE82FF0E0EE0FFF1FE25D8A
:1030C000FE4F808191819464A2C0811520E2920715
:1030D00058F4811531E0930708F099C08D3E9105B1
:1030E00008F493C0906593C0811540E4940708F4F8
:1030F0008CC09F70906A8BC0811525E5920708F0FF
:1031000042C0811534E5930728F0982F8827846FF3
:10311000906A7DC0811543E59407B0F09C0123704F
:10312000332741E050E002C0440F551F2A95E2F7D3
:10313000282F2695269580E2289F90011124CA0108
:10314000822B932B9A6863C0811522E5920728F49D
:10315000982F8827816F906A5AC09C01237033276B
:1031600041E050E002C0440F551F2A95E2F7282F96
:103170002695269580E2289F90011124CA01822B72
:10318000932B9C6844C0EC01811539E59307A8F4A2
:103190008115984528F09C2F8827806F906A37C04A
:1031A000C11586E5D80788F58C2F0E9428168F71E7
:1031B00090E0982F882790622AC081152AE592070F
:1031C00090F48C2F8F700E94281694E0D695C795A6
:1031D0009A95E1F7CF70D0E0DC2FCC27D0699E0123
:1031E000282BC90114C090568115904270F48D2F80
:1031F0008F710E942816282F2F71CE019927906277
:10320000922B05C081E090E002C080E090E0DF9169
:10321000CF910895CF9384E090E00E946629C82F53
:1032200082E290E00E9466292C2F30E0A901582B01
:10323000CA01CF91089569EE7EEF80E090E00E9490
:10324000A22960E082E090E00E94842960E083E0AF
:1032500090E00E9484291092FB031092FC031092CC
:10326000FD031092FE0360E084E090E00E94842958
:1032700060E082E290E00E94842960E085E090E0D6
:103280000E94842960E086E090E00E9484296FEF2C
:1032900087E090E00E94842940E050E0BA0188E095
:1032A00090E00E94962960E08DE090E00E948429E1
:1032B00040E050E0BA0188E190E00E94962960E089
:1032C00087E190E00E94842940E050E0BA018CE15F
:1032D00090E00E94962960E070E080E290E00E9419
:1032E000A22940E050E0BA0188E190E00E949629CE
:1032F00040E050E0BA018FE090E00E94962940E063
:1033000050E0BA0183E190E00C9496298091FA0391
:1033100081111092FA0308959091F9038091F803B6
:10332000892B2091F703982F922B9093B6038091CD
:10333000FA03882389F0892B8093B603E8EBF3E046
:1033400097E080E0915029F021912223D9F38F5FFB
:10335000F9CF81110E948619E091A903F091AA0387
:10336000309731F00280F381E02D86EB93E00994F1
:103370000895CF93C0918302C2FB992790F99817C3
:1033800081F080FBC2F9C09383026091820284E0E5
:1033900090E00E9484296C2F82E290E0CF910C94FF
:1033A0008429CF9108952091F603809582238093FC
:1033B000F603982F977041F430E0482F082E000C48
:1033C000550B2417350721F49091830292FF07C013
:1033D0008595859585950E94C0271092F6030895DE
:1033E0008091F5039091C403891719F08F5F87705E
:1033F000FBCF08950F931F93CF93DF938091C30367
:1034000082958F7009F05DC08091C003882309F414
:1034100058C08091F5031091C4036091BE03709170
:10342000BF03C091C103D091C20391E06F3F09F087
:1034300090E0292F06E0811709F443C0209721F07E
:103440007F3F21F030E003C031E001C0322F90E037
:1034500030FD34C0089FF001099FF00D1124DF01F9
:10346000AB53BC4F11963C911197371327C03C9139
:10347000361324C012963C91129731111FC0139637
:103480004D915C9114974C1B5D0B483C5105B0F479
:103490008091C3038F7080618093C303E653FC4F18
:1034A00080818F70806180838EEB93E00E94540A4C
:1034B000DF91CF911F910F910C94F01901968770B5
:1034C000BACFDF91CF911F910F9108959F92AF9244
:1034D000BF92CF92DF92EF92FF920F931F93CF9301
:1034E000DF93CDB7DEB761970FB6F894DEBF0FBE9E
:1034F000CDBF8C0185E0F801DE011D9601900D9293
:103500008A95E1F7F801E2809091BE036091BF03D4
:103510004091C1035091C2034115510531F06F3FF5
:1035200031F481E09F3F19F403C081E001C080E0E5
:10353000F82FF1709F2E80FD1AC1F8013081218192
:10354000C380D4808EEBA82E83E0B82EF090C00309
:10355000F601E41BF50BFF2009F4C6C08091C303FC
:10356000E83CF10508F091C0482F407F09F050C0B9
:10357000621311C093130FC0FE2CE1100CC08F70AA
:1035800080618093C303C5010E94540A8091C303E4
:10359000F801858329C1CD2831F02F3F31F481E036
:1035A0003F3F19F403C081E001C080E080FD03C00B
:1035B00081E08E2502C080E090E0F82FF170FF2EB0
:1035C00080FF1CC08091F5034091C40356E084172E
:1035D00009F4E8C090E0589FF001599FF00D1124C4
:1035E000EB53FC4F6181261306C06081631303C057
:1035F0006281E61203C001968770E9CFFE2CEE20AF
:1036000009F4F2C08091C30381608093C30349C071
:10361000621306C0931304C0E11002C0F80186C013
:10362000C8010E941028882351F1EE2041F1209119
:10363000C303822F82958F7090E0029774F080917F
:10364000BE039091BF0398878F831986DB86CA8655
:103650002C87CE0107960E94540A86E0F801AEEB53
:10366000B3E001900D928A95E1F70E94FA190AC021
:103670006217C9F0C8010E94102881111EC0C8013C
:103680000E94540AFF24F394AFC0482F407F81F773
:103690008EEB93E00E94540A86E0F50111928A9520
:1036A000E9F7F12CA1C09313E5CFE110E3CFF801C6
:1036B0008583C8010E94540A54C0EE2001F3209172
:1036C000C303822F82958F7090E0029734F280912D
:1036D000BE039091BF039A8389831B82DD82CC82D3
:1036E0002E83CE010196B7CFE83CF105D0F5FE2C34
:1036F000EE2029F2621327C0931325C02091C30343
:1037000020FD18C0822F82958F70482F50E0411500
:10371000510581F0F80125834F30510541F08F5F4D
:10372000982F9295907F822F8F70892B8583C80167
:103730000E94540A86E0F801AEEBB3E001900D92CE
:103740008A95E1F751C0C8010E941028811185CFE8
:103750008091C30381608093C303C8010E94540A0F
:1037600043C086E0F50111928A95E9F73DC0EE204D
:1037700009F485CFC8010E941028F82E882309F487
:103780007ECF86E0F801AEEBB3E001900D928A9512
:10379000E1F78091BE039091BF030E9443270E94EE
:1037A000FA1922C03D872E878D859E850E9443276A
:1037B000292F22952F70223028F49F7039F0811123
:1037C00005C00BC0243028F49F7049F4805E883017
:1037D00020F0C8010E94540A9F2CF92C05C0F80162
:1037E0009581907F99F7F9CF8F2D61960FB6F89458
:1037F000DEBF0FBECDBFDF91CF911F910F91FF9024
:10380000EF90DF90CF90BF90AF909F9008959091F0
:103810004604937091F0811102C0946007C0883211
:1038200010F09C6903C0880F880F982B9093460472
:103830001092140181E08093450408952F923F92E5
:103840004F925F926F927F928F929F92AF92BF92B0
:10385000CF92DF92EF92FF920F931F93CF93DF935C
:10386000CDB7DEB727970FB6F894DEBF0FBECDBF3A
:10387000282E4B01209111018EE0289F802D1124CC
:103880008E83182F125F173408F016E430911C0451
:1038900039839E81911708F07CC08E81682E712C2F
:1038A000F301E25DFD4F908180911201892309F4BB
:1038B0006CC03090470440904804522C1F82C301D2
:1038C000880F991FDC01AE55BE4FBB83AA83C3018D
:1038D000880F991FFC01ED55FE4FFD83EC83F981A4
:1038E0005F1608F040C0E52CF12CAA81BB81CC907A
:1038F000D12CF701E45EFB4F8181C81AD108AC815D
:10390000BD81AC90B12C8185A81AB108CC9C9001E6
:10391000CD9C300D300D1124AA9CC001AB9C900DA4
:10392000900D1124820F931F0E949B24082F6091F9
:103930004A0421E0620F08F46FEFF701EE0FFF1F5A
:10394000E45EFB4F818D928D0E94F5247C019501F0
:10395000A601632D742D8F81F4010995362E472E13
:103960008F835394BCCF209149048F81382F329F8D
:10397000312D1124832F632D742D0E94FF24462F97
:10398000282F672FC3010E949F158E818F5F8E8322
:1039900080CF81E0163408F080E027960FB6F894C7
:1039A000DEBF0FBECDBFDF91CF911F910F91FF9072
:1039B000EF90DF90CF90BF90AF909F908F907F90CF
:1039C0006F905F904F903F902F900895CF92DF922D
:1039D000EF92FF920F931F93CF93DF938C01C091CF
:1039E00011018EE0C89FC02D1124DEE0DC0FD7341A
:1039F00008F0D6E420914A0431E0230F08F42FEFB9
:103A000030E040E050E06FEF7FEF80E090E00E9418
:103A1000A8297901CD1708F041C0CC2ED12CF60190
:103A2000E25DFD4F9081809112018923A9F190916F
:103A30001C04915097FD15C0492F092E000C550B01
:103A4000FA01E45EFB4F8189C813F3CF440F551F81
:103A5000FA01E45EFB4F218D328D2E153F0548F7AC
:103A600001C0970160914A0441E0640F08F46FEFD0
:103A7000C9010E94F524AC0160914704709148048B
:103A800080914904F80109950E94FF24462F282FB0
:103A9000672FC6010E949F15CF5FBCCF81E0D6344F
:103AA00008F080E0DF91CF911F910F91FF90EF9090
:103AB000DF90CF900895DF92EF92FF920F931F93C4
:103AC000CF93DF938C01C09111018EE0C89FC02D70
:103AD0001124DEE0DC0FD73408F0D6E460914A040C
:103AE0006695669521E0620F08F46FEF80911804E7
:103AF000909119040E94F524D82ECD17F0F4EC2EE5
:103B0000F12CF701E25DFD4F908180911201892334
:103B100091F06091470470914804809149042D2DE3
:103B20004C2FF80109950E94FF24462F282F672F5C
:103B3000C7010E949F15CF5FE0CF81E0D63408F027
:103B400080E0DF91CF911F910F91FF90EF90DF9078
:103B500008959F92AF92BF92CF92DF92EF92FF9221
:103B60000F931F93CF93DF936C01C09111018EE0EF
:103B7000C89FC02D1124DEE0DC0FD73408F0D6E456
:103B800060914A0466956695809118049091190495
:103B90000E94F524182F80E4810F0E94562490E89B
:103BA000F92EF80E812F0E94562420E8922E980EAE
:103BB000CD1700F5AC2EB12CF501E25DFD4F9081E3
:103BC000809112018923A1F060914704709148040B
:103BD00080914904E12E0C2F292D4F2DF6010995D6
:103BE0000E94FF24462F282F672FC5010E949F1592
:103BF000CF5FDECF81E0D63408F080E0DF91CF9157
:103C00001F910F91FF90EF90DF90CF90BF90AF90FA
:103C10009F9008956F927F928F929F92AF92BF92E2
:103C2000CF92DF92EF920F931F93CF93DF933C01DC
:103C3000C09111018EE0C89FC02D1124DEE0DC0F81
:103C4000D73408F0D6E460914A0466958091180450
:103C5000909119040E94F524182FCD1708F044C044
:103C60008C2E912CF401E25DFD4F90818091120128
:103C70008923C1F1F401EE0FFF1FEE55FE4FC08006
:103C8000D12C80E7C81AD108F401EE0FFF1FED55C3
:103C9000FE4FA080B12CE0E2AE1AB108CC9C90019E
:103CA000CD9C300D300D1124AA9CC001AB9C900D11
:103CB000900D1124820F931F0E949B24082F609166
:103CC00047047091480480914904E12E9501A601B2
:103CD000F30109950E94FF24462F282F672FC40166
:103CE0000E949F15CF5FB9CF81E0D63408F080E005
:103CF000DF91CF911F910F91EF90DF90CF90BF9008
:103D0000AF909F908F907F906F900895CF92DF92A9
:103D1000EF92FF920F931F93CF93DF936C01C091AB
:103D200011018EE0C89FC02D1124DEE0DC0FD734D6
:103D300008F0D6E460914A04669580911804909149
:103D400019040E94F524182FCD1778F5EC2EF12CCC
:103D5000F701E25DFD4F908180911201892319F1F5
:103D6000F701EE0FFF1FED55FE4F208130E020528E
:103D70003109F701EE0FFF1FEE55FE4F408150E075
:103D8000405751096091470470914804809149045B
:103D9000012FF60109950E94FF24462F282F672F37
:103DA000C7010E949F15CF5FCFCF81E0D63408F0C6
:103DB00080E0DF91CF911F910F91FF90EF90DF9006
:103DC000CF90089590914604937061F080934704DA
:103DD00060934804453B08F044EB4093490481E07C
:103DE000809345040895EF92FF920F931F93CF9312
:103DF000DF937C018B010E941112811119C0E70130
:103E000001151105A1F08091E80085FD0AC080919F
:103E1000E8008E778093E8000E941112882381F3D6
:103E200007C089918093F10001501109E9CF80E02A
:103E3000DF91CF911F910F91FF90EF9008951F9305
:103E4000CF93DF93CDB7DEB7AA970FB6F894DEBF56
:103E50000FBECDBFE0E1F4E08091F100819324E05A
:103E6000E831F207C9F780911104833009F460C08A
:103E700030F4813071F0823009F49AC0B1C08A30D8
:103E800009F486C08B3009F46BC0893009F0A8C0F2
:103E900020C080911004813A09F0A2C08091E8000E
:103EA000877F8093E8008091140490911504892BFA
:103EB00021F468E084E094E003C060E080E090E0FA
:103EC00070E00E94CE138091E8008B778093E80029
:103ED00087C080911004813209F082C0809114045F
:103EE00090911504029708F07BC08091E800877FCD
:103EF0008093E8008091E80082FD05C080910E0467
:103F00008111F8CF6DC02091F3008091F20090E014
:103F1000922B029729F48091F1008B7F813021F45C
:103F20008091F100809303048091E8008B7754C066
:103F300080911004813A09F053C08091140490914B
:103F40001504892B09F04CC08091E800877F80938D
:103F5000E8008091E80080FFFCCF8091100137C01D
:103F6000809110048132E1F5809114049091150440
:103F7000892BB1F58091E800877F8093E8000E944B
:103F8000441280911204809310010E943C2828C0A2
:103F900080911004813221F58091E800877F809321
:103FA000E8000E944412809113048093020418C018
:103FB00080911004813AA1F48091E800877F80937A
:103FC000E8008091E80080FFFCCF8091020480939C
:103FD000F1008091E8008E778093E8000E944412FF
:103FE0008091E80083FFCCC180911004909111046E
:103FF000492F50E04A30510508F0C2C1FA01E65796
:10400000FF4F0C94332A803821F0823809F0B8C170
:1040100008C080910C0490910D04992389F082606E
:104020000FC0809114048F70873008F0A9C180936D
:10403000E9008091EB0085FB882780F91092E90068
:104040009091E800977F9093E8008093F1001092A0
:10405000F10065C1282F2D7F09F092C1882319F046
:10406000823061F08DC180911204813009F088C1E5
:10407000933009F080E080930D042EC080911204EB
:1040800081112AC0809114048F702FEF280F2630E1
:1040900008F076C18093E9002091EB0020FF1CC05E
:1040A000933021F48091EB00806214C09091EB007A
:1040B00090619093EB0021E030E0A90102C0440F31
:1040C000551F8A95E2F74093EA001092EA0080912A
:1040D000EB0088608093EB001092E9008091E8008B
:1040E000877F20C181114CC1109112041F778091EC
:1040F000E3008078812B8093E3008091E800877F44
:104100008093E8000E9444128091E80080FFFCCF79
:104110008091E30080688093E300111102C082E087
:1041200001C083E080930E042BC18058823008F0D8
:1041300027C180911204909113048C3D53E09507A0
:1041400079F583E08A838AE289834FB7F894DE01A8
:10415000139620E03EE051E2E32FF0E05093570049
:10416000E49120FF03C0E295EF703F5FEF708E2F68
:1041700090E0EA3010F0C79601C0C0968D939D93F1
:104180002F5F243149F74FBF8091E800877F8093EC
:10419000E8006AE270E0CE0101960E94CE13AEC044
:1041A0004091140450911504292F332723303105F1
:1041B000A9F068F42130310509F4F1C0223031054D
:1041C00009F0DEC08BE390E0EFEFF1E044C0213274
:1041D000310521F12232310571F1D2C099278130A8
:1041E0009105A1F058F0029709F0CAC0ECE4F2E0A2
:1041F000E4918E2F90E0ECE4F2E02AC0E2E8F2E0F5
:10420000E4918E2F90E0E2E8F2E022C0EAE6F2E0EC
:10421000E4918E2F90E0EAE6F2E01AC041155105D4
:1042200009F4C2C04130510509F0AAC089E090E00C
:10423000EAE2F2E010C04115510509F4BAC041307C
:10424000510509F09DC08BE790E0E4E4F1E003C084
:10425000009709F495C02091E800277F2093E8009B
:1042600020911604309117048217930708F49C01DB
:1042700040E02115310589F180910E04882309F46D
:104280003DC08530D9F18091E80083FD37C0809131
:10429000E80082FD2FC08091E80080FFEACF4091C6
:1042A000F3008091F20090E0942B2115310559F034
:1042B0008830910540F444914093F10031962150AB
:1042C00031090196F2CF41E0089709F040E0809172
:1042D000E8008E778093E800CCCF4111CDCF0AC0A3
:1042E00080910E04882351F0853041F08091E800E0
:1042F00083FD04C08091E80082FFF2CF8091E80046
:104300008B778093E8003CC08038D1F58091E8003D
:10431000877F8093E80080910F048093F100809163
:10432000E8008E778093E8000E94441229C0811132
:1043300027C080911204909113049927029704F5E5
:104340008091E800877F8093E80010911204109319
:104350000F040E944412111106C08091E30087FDF2
:1043600002C081E001C084E080930E0442E061EC71
:1043700081E00E94631242E261EC82E00E946312DB
:104380008091E80083FF1AC08091E800877F8093C6
:10439000E8008091EB0080628093EB000FC082E127
:1043A00090E0EAE3F2E057CF89E090E0E1E1F2E06B
:1043B00052CF80E490E0EFEBF1E04DCFAA960FB63C
:1043C000F894DEBF0FBECDBFDF91CF911F9108954E
:1043D000EF92FF920F93E00EF11CF90137FF03C03B
:1043E000F195E195F10924E0EE0FFF1F2A95E1F721
:1043F000EF3FF10519F014F0EFEFF0E09A0157FFED
:1044000003C031952195310994E0220F331F9A950D
:10441000E1F72E173F070CF4F901EE0DFF1DEF3FFA
:10442000F10519F010F0EFEFF0E02E2F2095382F66
:10443000320F08F43FEF832F0F91FF90EF90089514
:10444000EF92FF920F93970195E0099F200D311D88
:1044500011242F3F310519F010F02FEF30E0209597
:10446000382F320F08F43FEF832F0F91FF90EF901A
:10447000089522E8241B08F420E0620F0895409577
:10448000282F429F412D1124842F0895E42FF0E01E
:10449000EE0FFF1FEE55FE4F9081921B97FD9195F9
:1044A000292F38E1239F212D1124620F08950F93A6
:1044B0001F9310E0F801EE0FFF1FEE55FE4F9081A5
:1044C000905797FD9195000F111FF801ED55FE4F84
:1044D000E081F0E0B097DF01AA0FBB1F8D010E0F46
:1044E0001F1F2003D001219FB00D1124E8E3F0E04D
:1044F000E91BF10997FDF3959F01220F331F8901F5
:104500000E0F1F1F40039001419F300D11242A0FF1
:104510003B1F37FF02C021583F4F220F232F221F7E
:10452000330B620F1F910F9108950F931F93522F1A
:1045300010E0F801EE0FFF1FED55FE4FE081F0E0B7
:10454000B097EE0FFF1F9F015203D001539FB00D94
:104550001124000F111FF801EE55FE4F008110E0ED
:1045600000571109000F111F40039001419F300DAA
:1045700011242A0F3B1F37FF02C021583F4F220F43
:10458000232F221F330B620F1F910F9108950F935A
:104590001F93522F10E0F801EE0FFF1FED55FE4F55
:1045A000E081F0E0B0979F015203D001539FB00D1E
:1045B0001124000F111FF801EE55FE4F008110E08D
:1045C0000057110940039001419F300D11242A0F1B
:1045D0003B1F37FF02C021583F4F220F232F221FBE
:1045E000330B620F1F910F910895EF920F931F935A
:1045F00093E0099F80011124159507956E2D600F9A
:104600001F910F91EF900895A22F50E0FA01EE0F45
:10461000FF1FED55FE4F9081905297FD9195440FED
:10462000551FFA01EE55FE4F3081232F30E02A1B33
:104630003109290F311D97FD3A95620F0895E42F36
:10464000F0E0EE0FFF1FED55FE4F6081621B0895F5
:10465000E42FF0E0EE0FFF1FEE55FE4F6081621B6E
:104660000895622F0895E42FF0E0EE0FFF1FEE553E
:10467000FE4F408134EE439F412D1124E82FF0E09E
:1046800050E0445E5F4FDA01A21BB1099D01B7FF04
:1046900003C031952195310993E0220F331F9A957C
:1046A000E1F7AF01421B530B9A0157FF02C020E014
:1046B00030E0582F259F212D1124822F0895E42FBB
:1046C000F0E0EE0FFF1FEE55FE4F408134EE439FAA
:1046D000412D1124E72FF0E050E0445E5F4FDA01F6
:1046E000A21BB1099D01B7FF03C031952195310986
:1046F00093E0220F331F9A95E1F7AF01421B530B52
:104700009A0157FF02C020E030E0279F212D11249D
:10471000722F0895FC019B01009721F477FF2BC0B5
:1047200080E80895AC0197FF04C044275527481B33
:10473000590BB901640F751F37FD0CC0241B350BD5
:10474000C901A5E0880F991FAA95E1F70E941F2AC9
:1047500080E20CC0CB0165E0880F991F6A95E1F7F4
:10476000BA01621B730B0E941F2A80E6861BF7FFAB
:1047700003C08195089580E00895EF920F93CF9341
:10478000DF93D72FC82FC9010E19BA010E948A23BF
:10479000602F681B7D2F8C2FDF91CF910F91EF90B1
:1047A00008950F93CF93DF93D72FC82FC901BA0174
:1047B0000E948A23682F600F7D2F8C2FDF91CF916D
:1047C0000F910895EF920F931F93CF93DF93D62FFE
:1047D000C72F182FC9010E19010FBA010E948A2391
:1047E000081B202F219F212D1124822F6D2F7C2F1C
:1047F000DF91CF911F910F91EF900895EF920F935A
:104800001F93CF93DF93D62F172FC82FC9010E19EF
:10481000070FBA010E948A23702F781B719F712D98
:1048200011246D2F8C2FDF91CF911F910F91EF905D
:104830000895FF920F931F93CF93DF93F62ED72FF8
:10484000182FC901C12FC01BBA010E948A23982FBB
:10485000990F890FC81B2C2F219F212D1124822FE6
:104860006F2D7D2FDF91CF911F910F91FF900895B4
:10487000FF920F931F93CF93DF93F62E172FD82F0E
:10488000C901C72FC01BBA010E948A23982F990F14
:10489000890F7C2F781B719F712D11246F2D8D2F07
:1048A000DF91CF911F910F91FF900895482F982F7E
:1048B00046FD9095E92FEF739F7046FD9F5FE2954F
:1048C000EF70EE0FF0E0EC58FD4F2181299F802D15
:1048D000212D112482958F702295207F822B30818B
:1048E000982F930F892F47FD8195805808950F9336
:1048F0001F93CF93DF93D62F072F182FC42F822F0C
:104900000E945624EC2FF0E0EE0FFF1FEE55FE4FF5
:1049100090819058890F87FD8195880F682F2CE032
:10492000629F612D11246D0F702F812FDF91CF9128
:104930001F910F910895BC018230910508F40895EC
:10494000613E8EE1780748F49B0195E03695279506
:104950009A95E1F748E0420F01C04FEF91E0242F14
:1049600030E0290F311D35952795229FF001239FB7
:10497000F00DF00D11246E177F0718F44FEF420F62
:1049800004C02F3F39F091E0920F491740F78FEFA5
:10499000890F08958FEF08950F93CF93DF93D72F4B
:1049A000C82F47FD4195E8E3F0E0CF01841B910952
:1049B00047FD9395889FB001899F700D700D11245C
:1049C000229FC001239F900D900D1124860F971FE9
:1049D0000E949B24682F660F860F682F600F7D2F23
:1049E0008C2FDF91CF910F91089520E030E0869FCA
:1049F000212D969F200D311D1124C9010895CF92BC
:104A0000DF92EF92FF920F931F93CF93DF93F62ED7
:104A1000472FE82FF0E0711106C0EA57FD4F84914F
:104A2000782F682F73C0272F30E0EA57FD4FE491AD
:104A3000FE2F0E2F10E056E0659FC0011124CFEF2E
:104A4000D0E0BE010E940B2A5BEA5603C001579FCB
:104A5000900D11248F0D911D8F0D911D982F990F81
:104A6000980F7E01E21AF30AE09ED001E19EB00D9C
:104A7000F09EB00D11248B2F499FA0011124452FCA
:104A800055277E01E41AF50AE09EA001E19E500D33
:104A9000F09E500D11246E01C91AD108C29E7001FA
:104AA000C39EF00CD29EF00C11242F2D3327C21B75
:104AB000D30BC09F9001C19F300DD09F300D1124AA
:104AC000932F6230710591F048F461157105E1F0A2
:104AD00061307105B9F49E2FE52F16C06430710561
:104AE00069F040F06630710579F00CC09E2FEB2F15
:104AF000832F0AC0EB2F8F2F952F06C09B2F8E2F51
:104B0000E32F02C09B2F852F7E2F692FDF91CF913E
:104B10001F910F91FF90EF90DF90CF9008950E942A
:104B2000851420915504211104C02091560422239C
:104B300021F0909352048093510420915704211145
:104B400004C020915804222321F0909350048093B4
:104B50004F04E091A903F091AA03309749F082E055
:104B6000809353040480F581E02D83E594E009945B
:104B700008958D3E39F49091560497FF35C01092F8
:104B8000560459C08E3E29F4909156041916BCF370
:104B90002BC0909155048F3E29F497FF25C01092A9
:104BA000550449C0803F19F41916CCF31DC09091EB
:104BB0005704893F29F41916BCF4109257043BC0DE
:104BC0008A3F19F497FF10C0F8CF8B3F39F49091CA
:104BD000580497FF09C0109258042DC08C3F21F44F
:104BE000909158041916BCF39FE0980F983080F408
:104BF00021E030E0A90102C0440F551F9A95E2F769
:104C0000CA0180959091540489238093540413C061
:104C10008D3F21F480914E048E7F0BC08E3F21F496
:104C200080914E048D7F05C08F3F29F480914E0402
:104C30008B7F80934E0480915504811106C0809132
:104C40005604811102C010924D04809157048111C5
:104C500006C080915804811102C010924C0408953E
:104C600080914E0480FD16C081FD16C082FD18C0E3
:104C700080914C04882391F0883290F428E0829F40
:104C8000C001112468E270E00E941F2A862F672B62
:104C900029F007C082E0089584E0089581E0089536
:104CA00088E0089580914E0480FD14C081FD14C0F9
:104CB00082FD16C080914D04882381F0843180F4F8
:104CC00022E3829FC001112464E170E00E941F2A48
:104CD000862F08958CE0089589E1089585E0089570
:104CE00082E308958D3E21F40E945226819504C0EE
:104CF0008E3E29F40E9452268093560408958F3EDA
:104D000021F40E945226819504C0803F29F40E941C
:104D10005226809355040895893F19F40E94302645
:104D200005C08A3F31F40E94302681958093570454
:104D300008958B3F21F40E943026819504C08C3F5A
:104D400029F40E9430268093580408959FE0980F1C
:104D5000983078F421E030E0A90102C0440F551FDB
:104D60009A95E2F7CA0190915404892B80935404D8
:104D700008958D3F21F480914E0481600BC08E3FD9
:104D800021F480914E04826005C08F3F29F4809108
:104D90004E04846080934E04089580E090E00E9469
:104DA000EA1480E090E00E94D4141092F80310926C
:104DB000F7030E948C19E3E5F4E086E0DF011D9221
:104DC0008A95E9F710924D0410924C0410924E040B
:104DD0000C948F258F929F92AF92BF92DF92EF92A9
:104DE000FF920F931F93CF93DF9380907E0290905A
:104DF0007F02A0908002B09081024091FB0350910D
:104E0000FC036091FD037091FE03842A952AA62A73
:104E1000B72ACFE1D0E02EE0929F7001112496E4F2
:104E2000D92E082F10E0D501C4010C2E04C0B69570
:104E3000A795979587950A94D2F780FD04C021978E
:104E400090F780E014C0DC9EF001DD9EF00D11248F
:104E5000EE0DFF1DE00FF11FEE0FFF1FEA57FC4F95
:104E6000859194910E947017019749F38C2FDF91DF
:104E7000CF911F910F91FF90EF90DF90BF90AF9077
:104E80009F908F900895CF93DF93EC010E94EA26C4
:104E900026E4829FC0011124FC012EE0D29FE00D88
:104EA000F11D1124EC0FF11DEE0FFF1FEA57FC4F0F
:104EB000859194910E947017DF91CF9108952EE013
:104EC000929F800D1124682F669566956695982FA0
:104ED000977085E0689FB001112440E050E080E0C9
:104EE000FB01E40FF51FE75AFB4F208130E0092E4C
:104EF00002C0369527950A94E2F721703327042ED5
:104F000001C0220F0A94EAF7822B4F5F5F4F4530B2
:104F1000510531F708952EE0929F800D1124E82F5E
:104F2000E695E695E695877051E001C0550F8A95A4
:104F3000EAF785E0E89FF0011124E75AFB4F20E0F3
:104F400030E070E04081CB01022E02C0969587953B
:104F50000A94E2F7817081958427852384278193C1
:104F60002F5F3F4F2530310569F7089560937E022A
:104F700070937F0280938002909381020C94CD26DF
:104F80000F931F9341E050E060E070E004C0440FD5
:104F9000551F661F771F8A95D2F7409550956095EB
:104FA000709580917E0290917F02A0918002B091D5
:104FB00081028A019B01082319232A233B23C9016B
:104FC000B8011F910F910C94B6270F931F9341E0E6
:104FD00050E060E070E004C0440F551F661F771F6B
:104FE0008A95D2F780917E0290917F02A0918002F3
:104FF000B09181028A019B01082B192B2A2B3B2B94
:10500000C901B8011F910F910C94B6276093FB035F
:105010007093FC038093FD039093FE030C94CD26C4
:10502000FC01808191810E944327292F2F70E92F55
:10503000E295EF704E2F50E0FA013297EE30F10515
:10504000B8F4EC56FF4F0C94332A803F99F018F4D3
:10505000883E70F40FC0843F59F40CC0883E50F075
:10506000813F31F407C0822F8695869586950895F5
:1050700080E0089581E008951092F90386E0E8EB5E
:10508000F3E0DF011D928A95E9F70C94CD26882381
:1050900041F080959091F90389238093F9030C9452
:1050A0008C190895882339F09091F903892B809306
:1050B000F9030C948C1908958823E1F19CEF980F63
:1050C000913A60F4E6EBF3E09281891301C0128219
:1050D000319643E0EC3BF407B9F714C090E2980F27
:1050E000983090F4877021E030E0A90102C0440FAD
:1050F000551F8A95E2F7CA0180959091F90389239B
:105100008093F9030C948C199BE5980F933020F44D
:1051100080E090E00C94EA1498E5980F973120F421
:1051200080E090E00C94D4148D3E20F00E94B925CC
:105130000C948F250895CF93882309F459C0C82F64
:105140008CEF8C0F813AF8F4E8EBF3E08EEB93E010
:105150002191C21721F08E179F07D1F70EC0E6EB01
:10516000F3E08CEB93E02281C21301C012823196EE
:105170008E179F07C1F70E948C196C2F86EB93E066
:105180000E94BA1410C080E28C0F883078F4C77087
:1051900081E090E001C0880FCA95EAF79091F90389
:1051A000892B8093F903CF910C948C19EBE5EC0FCC
:1051B000E33040F4F0E0E55DFE4F808190E0CF9178
:1051C0000C94EA14E8E5EC0FE73150F4F0E0EE0F50
:1051D000FF1FE25DFE4F80819181CF910C94D4142A
:1051E000CD3E30F08C2F0E947226CF910C948F25EB
:1051F000CF9108958F929F92AF92BF92CF92DF92FC
:10520000EF92FF92CF93DF93EC01688179818A81DD
:105210009B81611571058105910521F464E279EDA9
:105220008BE597E02DE133EF41E050E00E94A829A3
:1052300049015A019B01AC01A7EAB1E40E94C729C8
:105240006B017C01ACEEB4EFA50194010E94D5295D
:10525000DC01CB018C0D9D1DAE1DBF1DB7FF03C032
:105260000197A109B04888839983AA83BB839F775C
:10527000DF91CF91FF90EF90DF90CF90BF90AF90F4
:105280009F908F9008950E94FA28089580E091E001
:105290000E94FA280895A0E0B0E080930001909366
:1052A0000101A0930201B09303010895DC01CB0139
:1052B000FC01F999FECF06C0F2BDE1BDF89A319626
:1052C00000B40D9241505040B8F70895F999FECFBF
:1052D00092BD81BDF89A992780B50895A8E1B0E004
:1052E00042E050E00C945829DC01A40FB51F415056
:1052F000504048F0CB01840F951F2E910E948529C4
:1053000041505040D0F70895262FF999FECF92BD15
:1053100081BDF89A019700B4021639F01FBA20BD7A
:105320000FB6F894FA9AF99A0FBE08950396272FAC
:105330000E9485290E948429252F0E948529242FD7
:105340000C9485290196272F0E9485290C94842985
:10535000052E97FB1EF400940E94BF2957FD07D02D
:105360000E94DA2907FC03D04EF40C94BF29509513
:105370004095309521953F4F4F4F5F4F0895909541
:105380008095709561957F4F8F4F9F4F08950E9434
:10539000FC29A59F900DB49F900DA49F800D911D99
:1053A00011240895B7FF0C94C7290E94C729821BB6
:1053B000930B0895A1E21A2EAA1BBB1BFD010DC081
:1053C000AA1FBB1FEE1FFF1FA217B307E407F507B5
:1053D00020F0A21BB30BE40BF50B661F771F881F91
:1053E000991F1A9469F760957095809590959B0127
:1053F000AC01BD01CF010895A29FB001B39FC001D0
:10540000A39F700D811D1124911DB29F700D811DF0
:105410001124911D0895AA1BBB1B51E107C0AA1FAF
:10542000BB1FA617B70710F0A61BB70B881F991F45
:105430005A95A9F780959095BC01CD01089597FBE9
:10544000072E16F4009407D077FD09D00E940B2A8E
:1054500007FC05D03EF4909581959F4F0895709577
:1054600061957F4F0895EE0FFF1F0590F491E02D99
:105470000994FB01DC0104C08D910190801921F495
:1054800041505040C8F7881B990B0895FB01DC017F
:1054900002C001900D9241505040D8F70895F89401
:0254A000FFCF3C
:1054A2000100000022100711E810E410E010FFFFD5
:1054B2000100FF000300FFB430313233C6909192F5
:1054C20093959496973435366667F7818283E20026
:1054D200E900EA00B500B600B700CD008301CC00B8
:1054E2008A0192019401210223022402250226024A
:1054F20027022A02B300B4006F0070000001020309
:105502000405060708090A0B0C0D0E0F10111213E1
:105512001415161718191A1B1CFF1D1E1F202122F5
:10552200232425262728292A2B2C2D2E2F303132D1
:1055320033343536373839FFFFFF3AFFFF3B3C3D06
:105542003E3F00000F001E002D003C004B005A00A1
:105552006900780087009600A500B400CA00071011
:1055620016102510341043105210611070107F1065
:105572008E109D10AC10BB10CE100B201A202920CB
:105582003820472056206520742083209220A120B5
:10559200B020C62003301630213030303F304E303C
:1055A2005D306C307B308A309930A830C230D530D3
:1055B200034016402140654087409940C340D24095
:1055C200E140D820B42090206C20482024200404FC
:1055D200040404040404040404040401010404048F
:1055E200040404040404040404010104040404047F
:1055F200040404040404010104040404040404046F
:105602000404040104010101040101010101020277
:0C56120002020202003131295A1B750A05
:00000001FF
